:100000000EC028C027C026C025C024C023C022C0DF
:1000100021C020C01CC51EC01DC01CC01BC0112497
:100020001FBECFE5D2E0DEBFCDBF10E0A0E6B0E05E
:10003000EAEEFAE002C005900D92A236B107D9F7B8
:1000400020E0A2E6B0E001C01D92AE36B207E1F7B3
:1000500019D149C5D5CF60916A0070916B0080912C
:100060006C0090916D000895D90190E05CC0411141
:1000700022C09D01092E02C0359527950A94E2F70A
:1000800020FF0CC058B321E030E0082E02C0220F40
:10009000331F0A94E2F7252B28BB31C058B321E067
:1000A00030E0082E02C0220F331F0A94E2F7209599
:1000B000252328BB24C0E7E0F0E0E91BF1099D01FE
:1000C00002C035952795EA95E2F720FF0CC058B39A
:1000D00021E030E0082E02C0220F331F0A94E2F71D
:1000E000252B28BB0CC028B3E1E0F0E0082E02C0AD
:1000F000EE0FFF1F0A94E2F7E095E223E8BB38B366
:10010000E1E0F0E0062E02C0EE0FFF1F0A94E2F7D6
:100110003E2B38BB25E32A95F1F7000038B3E09574
:10012000E323E8BB9F5F983008F4A1CF0895FC015A
:1001300060317105A4F06051710981E090E002C066
:10014000880F991F6A95E2F722813381822B932BC6
:1001500093838283158214821782168224C06830AA
:10016000710594F06850710981E090E002C0880F39
:10017000991F6A95E2F724813581822B932B958311
:100180008483178216820FC01582148281E090E06A
:1001900002C0880F991F6A95E2F726813781822B6A
:1001A000932B978386834630510584F0465051093E
:1001B00081E090E002C0880F991F4A95E2F7208104
:1001C0003181822B932B9183808308954E5F5F4F03
:1001D00081E090E002C0880F991F4A95E2F72281E2
:1001E0003381822B932B938382830895CF92DF9266
:1001F000EF92FF920F931F93CF93DF93C82ED62ECB
:10020000790188B301E010E002C0000F111F4A9588
:10021000E2F7902F9095892388BBC0E0D0E00CC016
:10022000FE01EE0FFF1FEE0DFF1D2081318141E029
:100230006D2D8C2D19DF2196C430D1058CF385E30B
:100240008A95F1F7000088B3082B08BBDF91CF91A6
:100250001F910F91FF90EF90DF90CF9008958AB596
:1002600082608ABD83B7826083BF83B78B7F83BF81
:1002700083B7816083BF12BE8DE789BD80E189BFEE
:1002800078940895CF93DF93CDB7DEB760970FB61C
:10029000F894DEBF0FBECDBF87B3816087BB87B345
:1002A000826087BB87B3846087BBD9DFD4DE4B0114
:1002B0005C018BC0D0DE6093660070936700809312
:1002C000680090936900C7DE6093620070936300DA
:1002D00080936400909365004EC0FE01319688E0E3
:1002E000DF011D928A95E9F70130110531F440E0F4
:1002F00050E0B701CF011BDF1BC00B3011057CF4B0
:10030000A80142505109B701CE01019610DFA801A2
:1003100041505109B701CE01019609DF09C00B30E8
:10032000110531F449E050E0B701CE010196FFDE3E
:100330009E012F5F3F4F42E061E080E057DF0F5F9B
:100340001F4F0C30110514F000E010E0BFEFEB1A66
:10035000FB0A03C08601E12CF12CE2E1EE16F10468
:100360000CF4BBCF78DE60936200709363008093DF
:100370006400909365004091620050916300609129
:100380006400709165008091660090916700A09173
:100390006800B0916900481B590B6A0B7B0B809178
:1003A000600090E0A0E0B0E0481759076A077B07BB
:1003B00088F2FFEFCF1ADF0A02C0C12CD12C2CE04B
:1003C000C216D1040CF476CF46DEDC01CB018819CD
:1003D0009909AA09BB0980369A4EA105B10568F3AF
:1003E00086E98093600037DE4B015C017CC033DE20
:1003F0006093660070936700809368009093690033
:100400002ADE60936200709363008093640090938F
:1004100065003FC0FE01319688E0DF011D928A959C
:10042000E9F7E114F10431F440E050E0B801CF0104
:100430007EDE17C0BAE0EB16F1046CF4A701415060
:100440005109B801CE01019672DEA701B801CE01B3
:1004500001966DDE06C049E050E0B801CE0101967C
:1004600066DE9E012F5F3F4F42E061E080E0BEDE2E
:100470000F5F1F4F02C000E010E00231110554F27F
:10048000EADD609362007093630080936400909350
:10049000650040916200509163006091640070912A
:1004A00065008091660090916700A0916800B0910E
:1004B0006900481B590B6A0B7B0B8091600090E030
:1004C000A0E0B0E0481759076A077B07A0F2EFEFFA
:1004D000EE1AFE0A02C0E12CF12CFBE0EF16F1044B
:1004E0000CF485CFB8DDDC01CB0188199909AA0984
:1004F000BB0980369A4EA105B10568F386E9809361
:100500006000A9DD4B015C0107C1A5DD60936600B9
:100510007093670080936800909369009CDD6093FE
:100520006200709363008093640090936500CAC07A
:10053000FE01319688E0DF011D928A95E9F7C80136
:100540008170992700FF53C0B3E0EB16F1040CF45F
:100550004EC0E3E0EE16F10439F440E050E0B8019B
:10056000CE010196E4DD95C0F4E0EF16F10469F4E4
:1005700040E050E0B801CE010196D9DD41E050E005
:10058000B801CE010196D3DD84C02DE0E216F1045E
:10059000B4F4A70145505109B801CE010196C7DD59
:1005A000A70144505109B801CE010196C0DDA70151
:1005B00043505109B801CE010196B9DD6AC08DE002
:1005C000E816F10469F448E050E0B801CE01019664
:1005D000AEDD49E050E0B801CE010196A8DD59C07A
:1005E00049E050E0B801CE010196A1DD52C0892B4F
:1005F00009F04FC0ACE0EA16F1040CF04AC0E11477
:10060000F10439F440E050E0B801CE0101968FDDED
:1006100040C0B1E0EB16F10469F440E050E0B801ED
:10062000CE01019684DD41E050E0B801CE01019693
:100630007EDD2FC0EAE0EE16F104A4F4A7014250DB
:100640005109B801CE01019672DDA701415051094F
:10065000B801CE0101966BDDA701B801CE0101966C
:1006600066DD17C0FAE0EF16F10469F448E050E0E7
:10067000B801CE0101965BDD49E050E0B801CE0142
:10068000019655DD06C049E050E0B801CE01019663
:100690004EDD9E012F5F3F4F42E061E080E0A6DD2E
:1006A0000F5F1F4F02C000E010E0023111050CF493
:1006B0003FCFD1DC6093620070936300809364004D
:1006C00090936500409162005091630060916400D6
:1006D000709165008091660090916700A09168001C
:1006E000B0916900481B590B6A0B7B0B809160002D
:1006F00090E0A0E0B0E0481759076A077B0798F23E
:100700002FEFE21AF20A02C0E12CF12C8FE0E8167A
:10071000F1040CF4FACE9FDCDC01CB0188199909B5
:10072000AA09BB0980369A4EA105B10568F386E98E
:100730008093600090DC2B013C01C8C08CDC60938E
:10074000660070936700809368009093690083DC73
:1007500060936200709363008093640090936500DF
:100760008BC0FE01399688E0DF011D928A95E9F77A
:100770000130110531F440E050E0B701CF01D7DC82
:100780001BC00B3011057CF4A80142505109B70180
:10079000CE010996CCDCA80141505109B701CE0128
:1007A0000996C5DC09C00B30110531F449E050E071
:1007B000B701CE010996BBDC9E01275F3F4F42E0A7
:1007C00061E080E013DDFE01319688E0DF011D92DB
:1007D0008A95E9F70130110549F461E170E06E197D
:1007E0007F0940E050E0CF01A2DC23C00B301105AF
:1007F000A4F481E190E06C01CE18DF08A80142501A
:100800005109B601CE01019692DCA801415051096F
:10081000B601CE0101968BDC0CC00B30110549F4FA
:1008200061E170E06E197F0949E050E0CE01019668
:100830007EDC9E012F5F3F4F42E061E080E0D6DC2E
:100840000F5F1F4F0C30110514F000E010E0BFEFF8
:10085000EB1AFB0A03C08501E12CF12CE2E1EE1654
:10086000F1040CF47ECFF7DB6093620070936300B9
:100870008093640090936500409162005091630002
:1008800060916400709165008091660090916700AE
:10089000A0916800B0916900481B590B6A0B7B0B53
:1008A0008091600090E0A0E0B0E0481759076A0727
:1008B0007B0788F2FFEFAF1ABF0A02C0A12CB12C50
:1008C0002CE0A216B1040CF439CFC5DBDC01CB015E
:1008D00084199509A609B70980369A4EA105B10574
:1008E00068F386E980936000B6DB4B015C01A2C02F
:1008F000B2DB60936600709367008093680090930A
:100900006900A9DB609362007093630080936400C8
:100910009093650070C08E010F5F1F4F88E0D80173
:100920001D928A95E9F740E050E0B701C801FFDB6E
:10093000980142E061E080E059DCC70169E070E0C5
:10094000ABD08C016C010197079768F441E050E04F
:10095000B701CE010196EBDB9E012F5F3F4F42E0D6
:1009600061E080E043DCC8010297059768F442E04B
:1009700050E0B701CE010196DADB9E012F5F3F4FB9
:1009800042E061E080E032DC0350110903301105E0
:1009900068F443E050E0B701CE010196C8DB9E0148
:1009A0002F5F3F4F42E061E080E020DCB4E0CB16F7
:1009B000D10469F444E050E0B701CE010196B7DB01
:1009C0009E012F5F3F4F42E061E080E00FDCEFEFE0
:1009D000EE1AFE0A02C0E12CF12CF2E1EF16F1044E
:1009E0000CF499CF38DB60936200709363008093BE
:1009F00064009093650040916200509163006091A3
:100A00006400709165008091660090916700A091EC
:100A10006800B0916900481B590B6A0B7B0B8091F1
:100A2000600090E0A0E0B0E0481759076A077B0734
:100A300090F211DBDC01CB0188199909AA09BB09E5
:100A400080369A4EA105B10508F452CF2FCC1F92E3
:100A50000F920FB60F9211248F939F93AF93BF9372
:100A600080916A0090916B00A0916C00B0916D0034
:100A70000196A11DB11D80936A0090936B00A09315
:100A80006C00B0936D00BF91AF919F918F910F90CB
:100A90000FBE0F901F90189597FB072E16F4009429
:100AA00006D077FD08D00BD007FC05D03EF490951A
:100AB00081959F4F0895709561957F4F0895AA1B6A
:100AC000BB1B51E107C0AA1FBB1FA617B70710F039
:100AD000A61BB70B881F991F5A95A9F7809590956B
:0A0AE000BC01CD010895F894FFCF8A
:020AEA006400A6
:00000001FF
